:10000000A6C00000BFC00000BDC00000BBC0000013
:10001000B9C00000B7C00000B5C00000B3C0000008
:10002000B1C00000AFC00000ADC0000071C400004E
:1000300016C50000A7C00000A5C00000A3C00000B6
:10004000A1C000009FC000009DC000009BC0000038
:1000500099C0000097C0000095C000001FC20000BA
:1000600091C000008FC000008DC000008BC0000058
:1000700089C0000087C0000085C0000083C0000068
:1000800081C000007FC000007DC000007BC0000078
:1000900079C0000077C000001C0355006C0074009C
:1000A00069006D0061006B00650072002000320085
:1000B0002E0030000000420355006C0074006900FF
:1000C0006D0061006B006500720020004200560068
:1000D000200028007700770077002E0075006C0064
:1000E000740069006D0061006B00650072002E00F5
:1000F00063006F006D002900000004030904090279
:100100003E00020100C032090400000102020100A9
:100110000524000110042402060524060001070539
:1001200082030800FF09040100020A00000007051D
:100130000402400001070583024000011201100182
:1001400002000008C728010001000102000111247B
:100150001FBECFEFD2E0DEBFCDBF11E0A0E0B1E027
:10016000E2E9F0E102C005900D92A831B107D9F79C
:1001700012E0A8E1B1E001C01D92A533B107E1F79B
:1001800028D085C73DCF84B7877F84BF28E10FB6CD
:10019000F89420936000109260000FBE87E690E014
:1001A0009093CD008093CC0086E08093CA0010929B
:1001B000C8002093C900539A5A9A8AB180638AB9B9
:1001C0008BB180638BB999D384E085BD5F9A579AD0
:1001D0000895D9DF8FB7F89424EA31E030932502EF
:1001E0002093240230932702209326028FBF4FB71B
:1001F000F8948FE191E09093A00180939F019093F8
:10020000A2018093A1014FBF7894E901F82E092F34
:1002100013E09FB7F894809128029FBF803811F1B6
:1002200080E091E0E4D697FD1DC0E0912402F091BA
:1002300025028083E0912402F0912502CF010196EE
:10024000909325028093240222E08432920711F4D5
:10025000C183D2839FB7F894809128028F5F8093E7
:1002600028029FBF8FB7F894E090A3018FBFA89991
:1002700004C080E68E1508F05BC0A89A8091A301A7
:10028000882309F15D9810931C011DC0E091A10124
:10029000F091A2016191F093A201E093A10121E00C
:1002A000EF39F20721F4F092A1010093A2019FB768
:1002B000F8948091A30181508093A3019FBF80E0B7
:1002C00091E035D6EA94EE2009F780911C0188234D
:1002D00041F080911C01815080931C01882309F416
:1002E0005D9A80911D01882341F080911D0181500C
:1002F00080931D01882309F45C9A809118019091E4
:100300001901A0911A01B0911B010097A105B10537
:1003100021F00197A109B10903C080E090E0DC0160
:100320008093180190931901A0931A01B0931B01B7
:100330009FB7F894809128029FBF882311F1E09124
:100340002602F09127029191F0932702E093260272
:1003500082E0E432F80721F4C0932602D09327020A
:100360002FB7F894809128028150809328022FBFE4
:100370008091C80085FFFCCF9093CE005C981093CD
:100380001D0180E091E024D60BD543CF80E091E0C1
:1003900084C580E091E017C50F931F93CF938C0124
:1003A000DC015496EC915497E150E23028F4F0E0EF
:1003B000EA5EFE4FC08101C0C0E0F801838982304F
:1003C00009F4C860D80155968C915597873031F063
:1003D000883031F0863029F4C26003C0C46001C0A7
:1003E000C6601092C9001092C8001092CA00F801AD
:1003F00027853089418952892030F1EE3F07F0E0AE
:100400004F07F0E05F0781F0DA01C901B695A795C3
:100410009795879580589B47A14EBF4FBC01CD0152
:1004200014D62150304002C020E130E03093CD009E
:100430002093CC00C093CA00F80187859089A189D8
:10044000B2898030F1EE9F07F0E0AF07F0E0BF0720
:1004500011F480E001C082E08093C80088E98093B5
:10046000C900F80187859089A189B2898C32F1E0B1
:100470009F07F0E0AF07F0E0BF0761F48AE19EE17B
:10048000A1E0B0E08093180190931901A0931A01A4
:10049000B0931B01CF911F910F9108951F920F925E
:1004A0000FB60F9211242F938F939F93EF93FF9387
:1004B0008091CE009EB39430F9F4E0919F01F091C9
:1004C000A0018083E0919F01F091A001CF010196EE
:1004D0009093A00180939F0121E08F39920721F42E
:1004E0008FE191E0928381839FB7F8948091A3017B
:1004F0008F5F8093A3019FBFFF91EF919F918F9199
:100500002F910F900FBE0F901F901895FC018585BD
:1005100080FF0EC08091180190911901A0911A01DD
:10052000B0911B010097A105B10511F05F980895E6
:100530005F9A0895923029F0933041F09130E9F4B8
:1005400017C08EE390E0EEEFF0E01BC0813041F089
:10055000813018F0823089F406C0EAEFF0E005C07F
:10056000E6EBF0E002C0E8E9F0E0849190E009C039
:1005700082E190E0ECE3F1E004C080E090E0E0E0B4
:10058000F0E0DA011196FC93EE930895AC0128E0B7
:1005900030E080E003C08F5F220F331F2417350740
:1005A000D0F38295807F08958093E900EBEEF0E030
:1005B000808181608083EDEEF0E010826093EC003A
:1005C00040838091EE00881F8827881F089510922D
:1005D000F40080E08093E9001092F0001092E800AF
:1005E0001092ED009091EB009E7F9093EB008F5F57
:1005F000853081F7089580912D0287FF11C003C0D7
:100600008EB38823B1F08091E80082FFF9CF80910A
:10061000E8008B778093E80008958EB3882349F033
:100620008091E80080FFF9CF8091E8008E77809379
:10063000E800089585E69091EC0090FF05C0909148
:10064000E80090FF05C01BC09091E80092FD17C024
:100650009EB39923B1F09EB39530A9F09091EB0031
:1006600095FD13C09091E10092FFE5CF9091E100DC
:100670009B7F9093E1008150F1F684E0089580E043
:10068000089582E0089583E0089581E0089520911F
:100690003302309134022617370720F4B901FC01E8
:1006A00090E032C061157105D1F72091E8002E77F6
:1006B0002093E800F4CF8091E80083FD37C080915B
:1006C000E80082FD2DC08EB38823A1F18EB3853062
:1006D00079F18091E80080FF17C08091F20006C098
:1006E00091919093F100615070408F5F6115710599
:1006F00011F08830A8F391E0883009F090E0809103
:10070000E8008E778093E80061157105A1F69923C2
:1007100091F606C08EB3882369F08EB3853061F000
:100720008091E80082FFF6CF80E0089581E008958F
:1007300083E0089582E0089583E0089520913302D4
:10074000309134022617370720F4B9019C0190E05C
:1007500035C061157105D1F72091E8002E772093FF
:10076000E800F4CF8091E80083FD3AC08091E80072
:1007700082FD30C08EB38823B9F18EB3853091F1FC
:100780008091E80080FF1AC08091F20009C0F90151
:100790002F5F3F4FE491E093F100615070408F5F15
:1007A0006115710511F0883090F391E0883009F0FF
:1007B00090E08091E8008E778093E80061157105E4
:1007C00089F6992379F606C08EB3882369F08EB333
:1007D000853061F08091E80082FFF6CF80E00895D7
:1007E00081E0089583E0089582E0089583E008950C
:1007F0006115710529F42091E8002B772093E8001A
:10080000382F292F24C08091E80083FD30C08EB39B
:10081000882389F18EB3853061F18091E80082FFF1
:10082000F2CFE32FF22F08C08091F10081933E2F89
:100830002F2F6150704031F03E2F2F2F8091F2000A
:10084000882391F78091E8008B778093E800611509
:100850007105C9F606C08EB3882369F08EB3853062
:1008600061F08091E80080FFF6CF80E0089581E09C
:10087000089583E0089582E0089583E0089542D0CA
:1008800044D01EBA10922B0210922A021092290212
:1008900084E089BD89B5826089BD09B400FEFDCFC1
:1008A0008091D800982F9F779093D800806880938C
:1008B000D800809163008E7F809363008091D80080
:1008C0008F7D8093D8008091E0008E7F8093E00040
:1008D0008091E1008E7F8093E1008091E200816051
:1008E0008093E2008091E100877F8093E100809116
:1008F000E20088608093E2000895C1DF81E0809388
:100900002C0208951092E20008951092E1000895DB
:100910001F920F920FB60F9211242F933F934F9374
:100920005F936F937F938F939F93AF93BF93EF9357
:10093000FF938091E10080FF1BC08091E20080FF67
:1009400017C08091E1008E7F8093E1008091E200EA
:100950008E7F8093E2008091E20080618093E200CC
:100960008091D80080628093D80019BC1EBA17D23B
:100970008091E10084FF29C08091E20084FF25C0BE
:1009800084E089BD89B5826089BD09B400FEFDCFD0
:100990008091D8008F7D8093D8008091E1008F7E78
:1009A0008093E1008091E2008F7E8093E20080914D
:1009B000E20081608093E20080912B02882311F095
:1009C00084E001C081E08EBBEAD18091E10083FF29
:1009D00027C08091E20083FF23C08091E100877FE0
:1009E0008093E10082E08EBB10922B028091E100A7
:1009F0008E7F8093E1008091E2008E7F8093E20001
:100A00008091E20080618093E200E1DD80E060E0BF
:100A100042E0CADD8091F00088608093F000BFD191
:100A20008091E10082FF0AC08091E20082FF06C04F
:100A30008091E1008B7F8093E100B1D1FF91EF9134
:100A4000BF91AF919F918F917F916F915F914F91E6
:100A50003F912F910F900FBE0F901F9018951F92EE
:100A60000F920FB60F921124EF92FF920F931F93E4
:100A70002F933F934F935F936F937F938F939F93A6
:100A8000AF93BF93EF93FF93CF93DF930F92CDB7C5
:100A9000DEB789EEE82EF12CF70180818770108295
:100AA00000EF10E0F8019081977F9083789489831C
:100AB00022D0F894F7011082F80190819860908319
:100AC0008981F70180830F90DF91CF91FF91EF91A2
:100AD000BF91AF919F918F917F916F915F914F9156
:100AE0003F912F911F910F91FF90EF900F900FBEAC
:100AF0000F901F9018951F93CF93DF93CDB7DEB75C
:100B0000AC970FB6F894DEBF0FBECDBF80E0EDE22C
:100B1000F2E09091F10091938F5F8830D1F780914E
:100B20002D0220912E02253009F484C0263040F495
:100B30002130A1F1213070F0233009F017C12EC00F
:100B4000283009F4E9C0293009F4F8C0263009F04A
:100B50000DC18EC0803821F0823809F007C108C06D
:100B60008091290290912A02992371F082600CC031
:100B70008091310287708093E9009091EB0081E0D1
:100B800095FF80E01092E9009091E800977F9093A4
:100B9000E8008093F1001092F100C9C0882319F099
:100BA000823009F0E3C090E08F719070009729F0D7
:100BB0008230910509F0DBC00BC080912F0281309B
:100BC00009F0D5C0233009F080E080932A022CC0C0
:100BD00080912F02882341F520913102277009F47A
:100BE000C6C02093E9008091EB0080FFC0C08091D7
:100BF0002E02833021F48091EB00806213C080913B
:100C0000EB0080618093EB0081E090E002C0880FF0
:100C1000991F2A95E2F78093EA001092EA008091EA
:100C2000EB0088608093EB001092E9008091E8006F
:100C3000877F80C0882309F099C010912F0280918E
:100C4000E800877F8093E800D6DC04C08EB3882359
:100C500009F48DC08091E80080FFF8CF1F7711F074
:100C600083E001C082E08EBB10681093E3007FC078
:100C70008058823008F07AC080912F029091300223
:100C800023E08C3D920789F583E08C838AE28B8395
:100C90003FB7F894DE01159680E090E02EE041E247
:100CA000E22FF0E040935700E49180FF03C0E2950B
:100CB000EF702F5FEF705E2F505D5A3308F0595F71
:100CC0005C9311961C9211971296019684319105AE
:100CD00039F73FBF8091E800877F8093E800CE011D
:100CE00003966AE270E0D3DC11C060913102AE017C
:100CF0004F5F5F4F1FDCBC010097C9F18091E80096
:100D0000877F8093E80089819A8118DD8091E800CF
:100D10008B778093E8002BC0803841F58091E80004
:100D2000877F8093E80080912B028093F10080916F
:100D3000E8008E778093E8005EDC19C08823B1F468
:100D400090912F02923098F48091E800877F8093F1
:100D5000E80090932B024FDC80912B02882311F046
:100D600084E001C083E08EBB11DB01C012DB809107
:100D7000E80083FF0AC08091EB0080628093EB0063
:100D80008091E800877F8093E800AC960FB6F894D6
:100D9000DEBF0FBECDBFDF91CF911F9108950895A3
:100DA000CF938EB3882361F0C091E900C770109291
:100DB000E9008091E80083FF01C09DDEC093E90057
:100DC000CF9108950895CF93DF93EC018091E800CF
:100DD00083FF60C0888190E020913102309132021F
:100DE0002817390709F056C080912E02813261F030
:100DF000823220F4803209F04DC019C0823269F18C
:100E0000833209F047C038C080912D02813A09F041
:100E100041C08091E800877F8093E800CE010F9663
:100E200067E070E034DC8091E8008B7713C080913C
:100E30002D02813279F58091E800877F8093E80068
:100E4000CE010F9667E070E0D3DCCE01A5DA809189
:100E5000E8008E778093E8001DC080912D028132DA
:100E6000C9F48091E800877F8093E80080912F0289
:100E70008D87CE014BDB0DC080912D02813251F464
:100E80008091E800877F8093E800CE0160912F0277
:100E900099DFB1DBDF91CF9108950F931F93CF932B
:100EA000DF93EC010D96FC0189E0DF011D928A952C
:100EB000E9F72A813B8109818C81882311F014E0B4
:100EC00001C010E0C90162DB412F482B4260802F36
:100ED00061E86ADB813029F52E813F810D818885AB
:100EE000882311F014E001C010E0C9014FDB412F4D
:100EF000482B4260802F60E857DB813091F42A85CF
:100F00003B8519858C85882311F0C4E001C0C0E0C1
:100F1000C9013CDB4C2F482B4260812F61EC44DB44
:100F200001C080E0DF91CF911F910F910895CF9381
:100F3000FC01C62F8EB38430E1F447855089618966
:100F40007289411551056105710599F08181809380
:100F5000E9008091E80085FD08C08091E8008E7767
:100F60008093E80067DB882329F4C093F10080E0D8
:100F700001C082E0CF910895FC018EB3843011F559
:100F8000478550896189728941155105610571054F
:100F9000C9F081818093E9008091F2008823A1F05B
:100FA0009091E8008091E8008E778093E80095FDAD
:100FB0000DC040DB882359F49091E8009E77909310
:100FC000E800089582E0089580E0089580E00895A3
:100FD0002EB3243059F4FC01478550896189728908
:100FE000411551056105710509F0C6CF0895FC0151
:100FF0008EB3843021F54785508961897289411506
:10100000510561057105D9F085818093E9008091D2
:10101000E80082FF17C08091F200882321F08091C0
:10102000F10090E002C08FEF9FEF2091F2002223A9
:1010300059F42091E8002B772093E80008958FEF72
:101040009FEF08958FEF9FEF0895A1E21A2EAA1B3C
:10105000BB1BFD010DC0AA1FBB1FEE1FFF1FA21768
:10106000B307E407F50720F0A21BB30BE40BF50B65
:10107000661F771F881F991F1A9469F760957095EE
:10108000809590959B01AC01BD01CF010895F89426
:02109000FFCF90
:1010920000034000000440000002080000000000BD
:0810A2000000000000003020F6
:00000001FF
